:020000040C00EE
:1000000000D0FE1F010200089902000899020008B2
:1000100099020008990200089902000800000000F7
:10002000000000000000000000000000990200082D
:1000300099020008000000009902000899020008D7
:100040009902000899020008990200089902000824
:100050009902000899020008990200089902000814
:1000600099020008000000000000000000000000ED
:100070009902000800000000990200089902000897
:1000800099020008990200089902000899020008E4
:1000900099020008990200089902000899020008D4
:1000A00099020008990200089902000899020008C4
:1000B00099020008990200089902000899020008B4
:1000C00099020008990200089902000899020008A4
:1000D0009902000899020008990200089902000894
:1000E0009902000899020008990200089902000884
:1000F0009902000899020008990200089902000874
:1001000099020008BD4200089902000899020008FF
:100110009902000899020008990200089902000853
:10012000990200082D42000899020008990200086F
:100130009902000899020008990200089902000833
:100140009902000899020008990200089902000823
:100150009902000899020008990200089902000813
:10016000000000000000000000000000000000008F
:1001700099020008990200089902000899020008F3
:1001800099020008990200089902000899020008E3
:10019000990200089902000899020008952F0008AA
:1001A00099020008A12F0008413B0008353B0008D8
:1001B00099020008990200089902000899020008B3
:1001C00099020008990200089902000899020008A3
:1001D0009902000899020008990200080000000036
:1001E000990200089902000899020008592C000899
:1001F00099020008000000009902000800000000B9
:10020000DFF874D01D4880471D4C1E4DAC4209DA02
:1002100021686268A368043BA2BFC858D050FAE7BF
:100220000C34F3E7184B194CA34208DA19685A68E2
:100230000020043AA4BF8850FBE70833F4E71448D1
:10024000804714488047000034E3000C00D0FE1FB4
:10025000CC07000034E3000C00D0FE1F00000000BB
:10026000CCD7FE1F6430000000000020000E00000C
:10027000000E00200000000000D0FE1F6D1C0008D2
:1002800048020008600200086002000878020008C6
:100290001DB7000821B10008FEE7000001F0FC03D3
:1002A0000344F0B501F003041E69E400F825A540FD
:1002B00026EA05051D61466F4F000325BD4026EA6D
:1002C00005054567164DA84203D005F58075A8427F
:1002D00007D1056E012606FA01F125EA0101016642
:1002E00018E092F90050002D14DA55688D404560F1
:1002F000CD0800EB850001F00701066C8900072599
:100300008D4026EA05050564167A056C06FA01F1AA
:100310002943016412781969A2400A431A61F0BDA9
:10032000008E024810B5044601F05CFC064B0748FD
:100330001B68B3FBF0F303FB04F00023834202D0FD
:1003400000BF0133FAE710BDC0FF032040420F0099
:10035000020F0C235343024A20F07040985070471C
:1003600010440050020F0C235343024A20F0704007
:100370009850704714440050034B044A5B6910685E
:1003800003F00103D840704700460050C0FF03202F
:10039000034AD36823F480331843D060704700BF0A
:1003A00000460050034A936923F480331843906158
:1003B000704700BF00460050034A536A23F440339D
:1003C00018435062704700BF00460050064AD36889
:1003D00020B923F4807323F0010303E043F4807316
:1003E00043F00103D360704710470050054BD3F82A
:1003F000C4301B07FAD4044AD36823F040031843DF
:10040000D06070470040005000430050054BD3F8C7
:10041000C4301B07FAD4044AD36823F0800318437E
:10042000D06070470040005000430050034AD3683A
:10043000013823F0FF030343D360704700460050A8
:10044000034A136A013823F0010303431362704720
:1004500000460050034A1369013823F001030343A7
:100460001361704700460050034A5369013823F076
:10047000010303435361704700460050034A9369E8
:10048000013823F00703034393617047004600508F
:10049000034AD369013823F03F030343D361704714
:1004A00000460050034A536A013823F0FF03034318
:1004B0005362704700460050014B5860704700BFC0
:1004C00000460050020F0C235343024A20F07040B4
:1004D0009850704744460050020F0C235343024A81
:1004E00020F0704098507047484600500F4B5A69B2
:1004F00042F001025A615A6901380139000642F09E
:10050000100240EA01215A6159615A6942F04002E1
:100510005A615A6922F010025A615A6942F48022E3
:100520005A611A695207FCD5704700BF1047005046
:1005300010B50B4C6368012843F4801363600AD143
:10054000636823F4801363606420FFF7EBFE636845
:1005500043F4002363606420BDE81040FFF7E2BE6F
:1005600010470050024B4FF440325A60704700BFB2
:1005700000420050024B4FF440329A60704700BF77
:10058000004200500A4B1A68D20704D5094B1A687A
:10059000900506D4704701225A601A68D107FCD52D
:1005A000F4E74FF400729A601A689205FCD4704721
:1005B0000042005000440050034B186880F00800CF
:1005C000C0F3C000704700BF00430050104B4FF411
:1005D0000002DA600F4AD16921F03001D161596817
:1005E0000802FCD50A494FF40030C8600821516068
:1005F0005A689103FCD5064A4FF40021D1600549A1
:10060000CA6842F00802CA605A681203FCD57047F3
:10061000744000500043005070B50C4D0C4E6B6898
:1006200023F480336B60746803F0F0FA094BB0FB7D
:10063000F3F024F47023013823F0300343EA00433D
:1006400073606B6823F400336B6070BD104700501B
:1006500000470050A0252600044B186800F4607085
:10066000A0F5607358425841704700BF10470050D2
:10067000034A536823F4803323F002035360704726
:1006800010470050034A536843F4803343F0020399
:100690005360704710470050054A9368013823F4AF
:1006A000FE0343EA004393603220FFF73BBE00BFE6
:1006B000104700502DE9F0410C46054690461F4674
:1006C000069EFFF783FE012C314C52D135B903F061
:1006D0009DFA304DB0FBF5F0800501E04FF0C060B1
:1006E000636843F001036360636843F01003636071
:1006F000A168294B08F1FF320B4043EA02637A1EDE
:1007000043EA022278431823B0FBF8F5B5FBF3F374
:100710009B0D013B42EA0343A360636843F040033F
:100720006360636823F010036360636843F48023AD
:1007300063602368164A5907FBD5536823F0010309
:1007400053602368DA07FCD43C20B5FBF0F0800D41
:10075000864201D2FFF7A0FF5A20B5FBF0F0800DD2
:10076000864201D2FFF798FF3046BDE8F041FFF71F
:1007700093BFA368013E23F07F031E43A660636816
:1007800043F0010363602368DB07FCD5BDE8F0811B
:100790001047005040420F00FF8080F037B50446FC
:1007A0000020FFF7F5FDFFF7EDFEE3791BB9607A56
:1007B000FFF72CFE06E0FFF709FFFFF7FDFE00281C
:1007C000FBD0F4E71B4BD3F8C430002BFAD1207ACE
:1007D000FFF7AEFE207CFFF729FE607CFFF73AFEB4
:1007E000A07CFFF72DFEE07CFFF73EFEA37923B946
:1007F000E3784BB9FFF746FF10E0FFF70DFFFFF777
:100800002BFF0028FBD0F3E7FFF732FFA578A08885
:10081000E178627823780095FFF74CFFE068B0F547
:10082000803F01D1FFF7B4FD03B0BDE8304001F0D7
:10083000D9B900BF0040005010B504461020FFF7A2
:100840003BFE124B9C4204D10420FFF745FE0420DE
:1008500016E00F4B9C4204D10820FFF73DFE082014
:100860000EE00C4B9C4204D11020FFF735FE102007
:1008700006E0094B9C4207D10848FFF72DFE0748C8
:10088000BDE81040FFF76EBD10BD00BF00C00040C6
:1008900000000140004001400040004801000010FD
:1008A00038B504460D46FFF7C7FFE36843F480738D
:1008B000E360236823F4404343EA8531216038BD77
:1008C0000B6843614B79C3F340131B0543600B79FD
:1008D00003F00F0343624B7903F00F0303624B797C
:1008E000C3F3001383610B791B09C3627047836AEA
:1008F00023F4706343EA012383624162704700007E
:10090000092930B59CBF094C094DD0F8A83099BFD2
:10091000645C35F811104FF440510C2423EA0103B4
:10092000A2401A43C0F8A82030BD00BF68C000082C
:1009300072C0000801F0FC03184401F0030110B577
:10094000C9000469F8238B4024EA030303610369A7
:100950008A401343036110BD436F490010B503245F
:100960008C4023EA04034367436F8A401343436781
:1009700010BD01F4F843B3F5F04F01BF4B0003F491
:100980007E43C9B2194318BF0902C1637047000012
:1009900010B50C4CA14205D8C26B22F40032C263E0
:1009A0000A2207E0084CA1420AD8C26B42F4003286
:1009B000C263192201F012F8003018BF012010BDE7
:1009C000012010BDA0860100801A060038B504463B
:1009D0000D4601F0CDF8094B63632046A988FFF767
:1009E000C8FF20462968FFF7D3FF4FF4A063A36335
:1009F0004FF0FF33E3640023236438BD03033F0754
:100A0000D0F80831012A41F4806108BF41F00101AA
:100A100013F0E06F09D1836B1B06FCD4C36C43F465
:100A20000053C364C0F880107047C0F8801170474D
:100A3000D0F80831012A41F4A06108BF41F001015A
:100A400013F0E06F09D1836B1B06FCD4C36C43F435
:100A50000053C364C0F880107047C0F8801170471D
:100A6000D0F8083113F0E06F0BD1836B1B06FCD478
:100A7000C36C43F40053C3644FF4C063C0F88030C8
:100A800070474FF4C063C0F880317047D0F8083128
:100A900013F0E06F09D1836B1B06FCD4C36C43F4E5
:100AA0000053C364C0F880107047C0F880117047CD
:100AB000D0F8083113F0E06F0BD1836B1B06FCD428
:100AC000C36C43F40053C3644FF40073C0F8803028
:100AD00070474FF40073C0F880317047D0F8083188
:100AE00013F0E06F0BD1836B1B06FCD4C36C43F493
:100AF0000053C3644FF44073C0F8803070474FF424
:100B00004073C0F880317047D0F80C3113F0E06FBB
:100B10000CBF406DD0F81C01C0B27047036C01F4EB
:100B2000FE3213430364034AC36B0A401343C36397
:100B3000704700BF0000FC41036C01F4FE3223EA61
:100B400002030364034AC36B0A4023EA0203C3633C
:100B5000704700BF0000FC4170B50E46044601F02E
:100B600007F8F5793168002D08BF10252A46204680
:100B700000F034FFB379013B5B0043F440336D0870
:100B800043F00103013543EA0523E3633379013B75
:100B90001B0643F4817363637379626B03B9337922
:100BA000013B42EA034363634FF4A063A3634FF046
:100BB000FF33E3643389236470BDD0F8083113F048
:100BC000E06F08D1836B1B06FCD44FF40053C36461
:100BD000C0F880107047C0F880117047D0F80C3111
:100BE00013F0E06F0CBF406DD0F81C0180B270476D
:100BF000F0B51F4C04EB8003D4F8E051D3F8C431B6
:100C00001B681B0432D5342303FB00435B6A6BB3C0
:100C10008E080022B24208D0342303FB00432F6821
:100C20005B6A43F822700132F4E79300994209D1DC
:100C3000342303FB0044E36A0B44E362636A194410
:100C40006162F0BDD2072F68D21A8B42F0D23425F0
:100C500005FB00459E18F600D5F824E0FF25B540B9
:100C60003D40F5400EF803500133EEE7F0BD00BF04
:100C7000A001FF1F82B000230193019B43F02003DA
:100C80000193019B00F01F0023F4F86343EA8010F6
:100C9000064B0190D3F8A031019A1A611A690192AA
:100CA000019A9206FAD402B0704700BFA001FF1F5C
:100CB00082B000230193019B43F010030193064B84
:100CC000019AD3F8A0311A611A690192019AD206E9
:100CD000FAD402B0704700BFA001FF1F826A81688A
:100CE00030B5046BC1F31201A51A8D4288BF5218AA
:100CF00001788CBF826284620A074FF0000307D13B
:100D0000012262F3D44343F0C04364F3060314E0CA
:100D1000826A2AB962F31203012262F3DC430CE017
:100D2000C46A121B4468C4F3C6255419013CB4FBC1
:100D3000F5F464F3DC4362F312030C4A1268547B4B
:100D40000B4A3CB901F00F0402EB8404406AD4F86A
:100D5000C441606101F00F0102EB8101D1F8C421AF
:100D60001361136843F00443136030BD9C01FF1FFF
:100D7000A001FF1F0178D0F830C02DE9F04101F04B
:100D80000F0707F16A03294C866854F823E0836A49
:100D9000DEF80050C3EB0C08C6F31206B0452ABFBC
:100DA0009B19C0F828C08362836A00222BB963F3C1
:100DB0001202012363F3DC422CE011F00F0FC66A2C
:100DC00007D14FF0010C6CF3DC429B1B63F3120262
:100DD0000FE09B1B4668C6F3C62606F1FF3C63F393
:100DE00012021FFA8CFC1CFA83F393FBF6F363F3F5
:100DF000DC420F4B1B685B7B1BB9436ACEF8143097
:100E000008E0012B01BFD4F8A461706BBB40034321
:100E100008BF736301F00F016A3145F0044554F8CF
:100E200021301A611D60BDE8F08100BFA001FF1FE5
:100E30009C01FF1F00206FF300006FF3410040F0A2
:100E40001C006FF3451040F4E070C0F308007047D9
:100E5000044BD3F8A42153686FF34103536000207F
:100E6000704700BFA001FF1F044BD3F8A4215368B3
:100E700043F0020353600020704700BFA001FF1F32
:100E800010B50E4A00F00F03342000FB0320446825
:100E9000C4F3001484B903795B070DD54369994203
:100EA00094BF01630363C368C462846243620461E4
:100EB000FFF714FF204610BD012010BDA001FF1F49
:100EC000044BD3F8A4311A6811B960F30A121A60FE
:100ED00000207047A001FF1F10B51D4A00F00F044D
:100EE00040B2C1B1342363430028D35C03F00F0345
:100EF000ABBF02EB83036A33D3F8C41152F823105B
:100F00000B6843F400130B60342303FB04221379B2
:100F100043F0200319E0342363430028D35C03F03B
:100F20000F03ABBF02EB83036A33D3F8C40152F85B
:100F30002300036861F3555343F080530360342367
:100F400003FB042213796FF345131371002010BDC6
:100F5000A001FF1F00F00F023421114B514358181C
:100F6000595C090642BF416821F008014160342103
:100F700051435818595C09065EBF416821F01001C1
:100F80004160342000FB023300201A7918616FF3AE
:100F900045121A7198619862D8621863704700BF51
:100FA000A001FF1F2DE9F041384B00F00F0434225F
:100FB000624303EB020ED3F8A4619EF804109A5C1E
:100FC000F56911F0040F4FF0000702F00F0C4FF01D
:100FD000010058D001F0FB016FF345118EF80410A9
:100FE000DEF8041021F01001CEF80410DEF8041031
:100FF00067F3CF3721F0080100FA0CF047F0904773
:1010000022F07F02CEF804106FF3555702F0FF086C
:10101000C143AAB99EF80420900711D003EB8C0CB1
:10102000DCF8C421176001EA154262F31F45184A33
:101030001268527B012A16D1726B0A40726312E069
:101040000CF16A0253F82220176001EA050262F3EC
:101050000F05B8F1000FE1D00C48342202FB040266
:1010600012799207DAD0342000FB0430F5618188D0
:101070000122C1F383118A40B3F8FC1121EA020274
:10108000A3F8FC210020BDE8F08100BFA001FF1FF4
:101090009C01FF1F034BD3F8A4319868C0F30D20C7
:1010A000704700BFA001FF1F044B93F8FE0100F042
:1010B0000500431F58425841704700BFA001FF1F61
:1010C0000748D0F8A42108B5536843F002035360E1
:1010D00000214FF402720AF06AFB002008BD00BF35
:1010E000A001FF1F2DE9F84FDFF8B491154600F07D
:1010F0000F08342202FB08FB0BEB0904D9F8A431DA
:1011000082460E4620460021DF690AF050FB237913
:101110000BF809A043F0040323716368204665F3CC
:10112000D12340F8043F4B464268BAF1000F02D089
:101130004FF6C07100E0402161F312024260342298
:1011400002FB08F2DFF85CE1995C01F00F01080294
:101150009C180EEB000C0EF5E06E7044E0604E48FB
:10116000C4F81CC050F8210020624C4850F82100FF
:1011700060619A5C100601D4002E54D101F16A021C
:1011800053F822C0DCF8002042F4004266F3934298
:101190009EB9102D0DD003D8082D10D1032009E0E1
:1011A000202D04D0402D0AD166F30A0207E0012069
:1011B00000E0022060F30A0201E065F30A0242F057
:1011C0008052B3F8FCE16FF355524FF00009012053
:1011D00010EA0E0F5FFA89F407D009F10109400007
:1011E000B9F1070F80B2F3D14C4610EA0E0F04BFDD
:1011F00040EA0E00A3F8FC014FF0340000FB083079
:1012000018BF0024B0F804E004F00F0464F399520E
:1012100064F3891EA0F804E0CCF8002001228A4083
:101220003A4362F30F07342202FB08F813F8082050
:10123000120600D556BB03EB8102D2F8C401026846
:1012400042F4004266F393429EB9102D0DD003D8AC
:10125000082D10D1032409E0202D04D0402D0AD1FF
:1012600066F30A0207E0012400E0022464F30A02A4
:1012700001E065F30A0242F080526FF355520260BA
:1012800001228A4042EA174262F31F47D3F8A43191
:101290000020DF61BDE8F88FE8D7FE1FCCD7FE1F26
:1012A000A001FF1F0000002038B50C4C342303FBC5
:1012B000004408462569A369954228BF1546E2689F
:1012C000D1182A460AF068FA23695B1B23610BB127
:1012D000A3692B44A361284638BD00BFA001FF1FAE
:1012E000F8B5134B00F00F00342404FB00342379CD
:1012F000580719D563681B0718D4236AE0699A4216
:1013000028BF1A4615460AF047FAE36963620023CC
:10131000A362E3626368256343F0080320466360C9
:10132000FFF728FD206BF8BD0120F8BD0020F8BDB7
:10133000A001FF1F10B50023017B1846DAB28A42D4
:101340000FD2084C342202FB03425468240705D410
:10135000526812F0100F18BF012000E00120013385
:10136000ECE710BDA001FF1F70B50B4E96F8FE51C3
:10137000FFF7E0FF96F8FE310024C3F3800305F089
:10138000010563F3000465F3410460F38204012363
:1013900063F3C404204670BDA001FF1F10B5054CC7
:1013A0002046FFF799F82046FEF7DCFFBDE8104025
:1013B000FFF7D8B88000002038B50546FFF7EEFFEC
:1013C000394B1D6000233949402241F82320384918
:1013D00041F823200133072BF5D1364C00214FF47F
:1013E000027220460AF0E3F96B68C4F80032AB6879
:1013F000C4F804322B68C4F8A03103F50062C4F8C5
:10140000A42104F5D27103F5106203F51E6041F8C2
:10141000042F20328242FAD1274903F5306203F5C6
:101420003E6041F8042F20328242FAD12349002243
:10143000013203EB0230072A41F8040FF8D19A6811
:10144000697B42F0810211B942F0200201E06FF3A2
:1014500045129A60DA6842F0804242F48072DA60A3
:10146000D3F8002842F003026FF3D752C3F80028E4
:10147000D3F8042842F00202C3F804281020FFF732
:10148000F9FBFFF715FCD4F8A0210D496C7B002077
:101490004FF0FF33906153610A4B012C08BF0B469C
:1014A00043F44023936138BD9C01FF1FCCD7FE1F3E
:1014B000E8D7FE1FA001FF1F6003FF1F7C03FF1F73
:1014C0001E3C00C00E3C00C010B5054C2046FEF787
:1014D0003FFF2046FEF7F6FFBDE81040FFF74AB891
:1014E0008000002000230D281ED8DFE800F0071D33
:1014F0001D1D0A1D0D10101315181D1B4FF08043E4
:1015000012E04FF480530FE04FF400630CE04FF013
:10151000004309E0082307E04FF4806304E04FF440
:10152000005301E04FF40023024AD2F8A021536196
:10153000704700BFA001FF1F034BD3F8A4215369DC
:1015400018435061704700BFA001FF1F034BD3F841
:10155000A421136918431061704700BFA001FF1F49
:101560002DE9F04FC14CD4F8A0319F695D693D4031
:101570005FFA85F818F0080F85B0064606D00920F6
:10158000D4F8003298470920FFF7ACFF737B012B9A
:1015900019D118F0100F16D0D4F8A0316FF304173A
:1015A0009F61196AC1F34343022B01D0062B05D179
:1015B00001F00F00C1F30A11FFF71AFBD4F8A031B4
:1015C00047F010079F61C5F307277A0702D50A2065
:1015D000FFF788FF3B0706D50620D4F8003298476E
:1015E0000620FFF77FFF4FEA156818F0800F06D03E
:1015F0000820D4F8003298470820FFF773FF18F04E
:10160000400F0CD094F8FE3143F0040384F8FE310F
:101610000020D4F8003298470020FFF763FFF80657
:101620005CD5D4F8A421536843F001035360904B78
:1016300003F11C0053F8041F0A6842F000626FF3C4
:10164000555283420A60F5D1D4F8A03140214FF4BD
:10165000801261F30F0259629A62864AC3F804212C
:101660001032C3F808211032C3F80C211032C3F82D
:1016700010211032C3F814211032C3F818211020A1
:10168000FFF7F8FA0020FFF7F5FAFFF711FBD4F89F
:10169000A4314FF00112DA610F20FFF74DFF0F2048
:1016A000FFF754FFD4F8A42113684FF0000868F343
:1016B0000A131360737B012B08BFC2F83480636880
:1016C00023F010036360636823F008036360042061
:1016D000D4F8003298470420FFF704FFB90619D563
:1016E000D4F8A82113686FF30A03136094F8FE314D
:1016F00043F0050384F8FE310220D4F80032984705
:10170000D4F8A021D368092161F38D23D3600B2085
:10171000FFF7E8FEC5F307477A0740F1BB80D4F82E
:10172000A4319A691B6901934FF0000A93B20293A6
:10173000D046029B5FFA8AF4234100F0A880DB07C1
:1017400040F1A280494A04F16A034FF0340E0EFBC7
:1017500004FE52F82300D2F8A431D0F808C05B6B25
:1017600002EB0E0112F80EE00EF00F0923FA09F356
:101770004FEAC319019B5FFA89F949EA0309737BB0
:1017800009EA0C0913B9D0F810803CE0012B3AD1DA
:1017900019F0800F37D00EF00F0E0EF178000EF119
:1017A0006A0E52F820000390886AC96A52F82E2007
:1017B000401A92691DD000F1030C92B24FEA9C0CC2
:1017C000944584BF900094464FF0000BE34510D041
:1017D0002649342202FB041E0BF1010BDEF8241013
:1017E0000A6803990A60DEF824200432CEF8242027
:1017F000ECE71E4A342101FB0421CA6A0244CA6292
:101800004A6A02444A6219F0010F37D083B928F0BE
:1018100060426AB9154A342101FB0421D1F828E05D
:10182000CA6A486AC1F82CE0C2EB0E0202444A625E
:10183000DFF838E0342000FB04E0016B826A91425B
:101840001AD1426822F00802012B426001BFDEF883
:10185000A421516BA34021EA030308BF536344F062
:101860008000DEF804320221984707E0A001FF1F44
:101870006003FF1F50001000FFF77CFA6A34564BDC
:1018800053F82430C3F808900AF1010A51E70E20FA
:10189000FFF728FE380740F187804F4AD2F8A4119D
:1018A0008B69CF6949690191C3F30F434FF0000879
:1018B00003EA1747C24693465FFA8AF457FA04F3DD
:1018C0006FD0D9076AD50BEB8403019AD3F8C41102
:1018D0008B6803EA0209737B0BB9D1F810805FFAB9
:1018E00089FC1CF0080F29D0342000FB04B00179DA
:1018F0006FF3451101712BB9C8F34173DB00C3F1DC
:10190000180304E0012B03D1C16A03690B4403618E
:10191000342303FB04B3CDF808C0596821F010014B
:1019200059600020DBF80432014698470BEB840332
:101930000821D3F8C431DDF808C099601CF0010F0C
:1019400026D0737B73B9342303FB04B3C8F3120CA2
:10195000D96A986A401ACCEB00000144D962596AEE
:1019600001445962342000FB04B0016B836A994240
:101970000CD1C36A0361436823F010034360164B24
:101980002046D3F804320121984701E0FFF7A6F979
:101990000BEB8404D4F8C431C3F808900AF1010AAF
:1019A0008AE70D20FFF79EFD6A0712D50A4CD4F88E
:1019B000A0315D686B0709D594F8FE316FF382039F
:1019C00084F8FE310120D4F800329847D4F8A031D1
:1019D0005D6005B0BDE8F08FA001FF1F63292DE910
:1019E000F04105460C46164630D97AB3FEF7C4FCE2
:1019F000642140F2FF3CB0FBF1FEB4FBF1F40121A5
:101A00007443CEEB8E270A466046B7FBF4F34FEAE9
:101A10009328B8F5806F06D2C3F3090363453EBF30
:101A20009C46414602460138CEEB0707EDD142F411
:101A300000422A616A69074B013E134043EA86234C
:101A4000013943EA01436B61BDE8F0810120BDE843
:101A5000F08100BFEF8000FC30B5D0F8084124F0E1
:101A6000E064C0F80841D0F80851054C2C402143EF
:101A700041EA026242EA0323C0F8083130BD00BFE8
:101A8000C0C0FFF830B5D0F80C4124F0E064C0F8D5
:101A90000C41D0F80C51064C2C4044F080542143AA
:101AA00041EA026242EA0323C0F80C3130BD00BFB4
:101AB000C0C0FFEFD0F80C3123F0E063C0F80C3168
:101AC000D0F80C31090641EA022223F47C53134377
:101AD000C0F80C31704710B5072384698B4024EAA5
:101AE00003038A401A43826110BD10B50723D0F862
:101AF00008418B4024EA03038A401A43C0F80821B6
:101B000010BD10B50723D0F80C418B4024EA030325
:101B10008A401A43C0F80C2110BD000008B50F4BD5
:101B2000984206D14FF40060FEF7D6FC4FF40060F7
:101B30000EE00B4B984204D10A48FEF7CDFC094851
:101B400006E0094B984207D10848FEF7C5FC074854
:101B5000BDE80840FEF706BC08BD00BF0800034012
:101B600008000248800000100840024800010010F0
:101B7000164B984210B5044603D003F50073984203
:101B800001D1134815E0134B984203D003F50073BD
:101B9000984206D11048FEF79FFC0F48FEF7E2FB83
:101BA00009E00E4B984203D003F50073984202D12E
:101BB0000B48FFF7B3FF0323E360E368DB07FCD5C3
:101BC000236C23F00F03236410BD00BF000003400B
:101BD0000800034000000248800000100040024856
:101BE000084002481D4BDB68D90310B525D51C4BB6
:101BF000DA6812F0010F1C4602D102F007F800E08B
:101C000018482268164B520710D59A6899689B6845
:101C1000C2F30362C3F30644531C04FB0333B0FB5B
:101C2000F3F0C1F3062303FB000007E09B6803F019
:101C30007F030133B0FBF3F000E00A48074AD368A2
:101C4000DBB20133B0FBF3F0136903F0010301339E
:101C5000B0FBF3F0044B186010BD00BF004600500D
:101C60001047005000366E01C0FF032038B5094A06
:101C7000094D4FF00054234603CBAB421060516036
:101C80001C4602F10802F6D101F080FF01F0C2FF0C
:101C900038BD00BFC4FF03201000002008B50C4B66
:101CA0001A680AB90B4A1A601A680B49C31C23F058
:101CB000030313448B4203D2054910460B6008BD51
:101CC00009F026FD0C2303604FF0FF3008BD00BF74
:101CD00004D8FE1F000E0020C0FF03207047000044
:101CE000030A022B06D0032B07D0012B0ED11220A2
:101CF000084B0DE03E20084B0AE0C0B2022805D890
:101D0000064B074953F82030085C01E000200346E9
:101D1000136070472EC100081BC200080CC20008E7
:101D200018C20008044B00F00F0220F07F0083F877
:101D30003C2183F83D0170479806FF1F054B93F83F
:101D40003C212C2101FB02331A7912064CBF988BDF
:101D5000988970479806FF1F10B5424B93F83E21B3
:101D6000920704467CD5404A807C918889B288429B
:101D700076D151782039032972D8DFE801F02602A4
:101D80004B5E1278A12A6BD193F83E2193F83C1157
:101D900022F0020283F83E212C2202FB01329068DD
:101DA000C006F9D492689007F6D5A06900F07AFBD6
:101DB000207F00F04BFB607F00F048FBA07F00F02D
:101DC00045FBBDE8104000F0F1BA1278212A47D156
:101DD00093F83E2193F83C1122F0020283F83E2151
:101DE0002C2202FB01329268920604D41F4A127818
:101DF000002AF5D134E000F06BFBA06100F03CFB61
:101E0000207700F039FB607700F036FB184BA077A5
:101E10001B680DE01278212A22D193F83E2122F08E
:101E2000020283F83E21104B5B88A382104B5B6853
:101E3000B3B12046BDE8104018471278212A0FD1CF
:101E400093F83E2122F0020283F83E21084B9B6862
:101E500033B1054A51882046C9B2BDE81040184741
:101E600010BD00BF9806FF1F8E04FF1F8D04FF1FCB
:101E700000D0FE1F38B50C2204460021143009F0B2
:101E800096FC02232371A3720323237420460121AD
:101E900000F036FB01210546A01D00F031FB0121B9
:101EA000002804F10C0008BF002500F029FB0028E1
:101EB00014BF2846002038BD38B50A4B1B78042BC8
:101EC0000D4614460BD183694BB10078FFF72AFF0A
:101ED000284621460022BDE8384000F05FB90220C4
:101EE00038BD00BF8D04FF1F08B5094B1B78042BBC
:101EF0000BD183694BB10078FFF714FFFFF71EFF8A
:101F000020B100F053FA002008BD022008BD00BF38
:101F10008D04FF1F10B50E4B1B78042B044615D102
:101F200083699BB10078FFF7FDFE0A4B93F83C21D3
:101F30002C2101FB02339A68D20607D49B689B07C9
:101F400004D52046BDE81040FFF7CEBF10BD00BF4E
:101F50008D04FF1F9806FF1F10B50E4B1B78042B36
:101F600001D0002414E08369002BFAD08079FFF7B8
:101F7000D9FE094B93F83C212C2101FB02339B68CD
:101F80009B06EED5FFF7DAFE044608B900F0E4F947
:101F9000204610BD8D04FF1F9806FF1F014B012234
:101FA0001A707047E803FF1F014B01225A707047F7
:101FB000E803FF1F014B01229A707047E803FF1FDF
:101FC00008B581200E49402200F034FE82200D49E0
:101FD000402200F02FFE03200B49402200F02AFE91
:101FE0000A48FFF747FF48B1094A92F83E3143F0EB
:101FF000010382F83E31074B04221A7008BD00BF6E
:10200000EB03FF1FA803FF1F2B04FF1F6C04FF1F20
:102010009806FF1F8D04FF1F0148FFF79DBE00BFFC
:102020006C04FF1F08B500F0FFFD20B1024B1878CB
:10203000031F5842584108BD8D04FF1F10B50346C9
:102040000A4679B170B119460848FFF735FF0028F4
:10205000064814BF06240024FFF746FF002818BFD7
:10206000062400E00624204610BD00BF6C04FF1FBC
:1020700037B500220546ADF806200C4699B190B15F
:102080000A4B032183F83C1183F83D212846214661
:102090000DF1060200F0D4F80528F7D000280CBF97
:1020A0000020062000E0062003B030BD9806FF1F88
:1020B00038B5074C4FF40065C4F88C50BFF34F8F10
:1020C000BFF36F8F0348FFF747FFE56038BD00BFE0
:1020D00000E100E06C04FF1FC0B10D4B02691B68FA
:1020E0001B691A6182689A6002681A60C268DA60C5
:1020F00042685A6042695A61C269DA6182699A61CA
:10210000026A1A62426A5A620020704701207047D0
:1021100038D0FE1F114B022010B518719872812023
:10212000822118730820002240241970D8810321CD
:102130000B489A745C805A7199711C81DA72197417
:102140005A74FFF7C9FF38B9064B186800F0DCFC79
:10215000003018BF012010BD012010BD6C04FF1F0E
:102160000CD0FE1F38D0FE1F08B5094A92F83E3148
:10217000D9070CD56FF3000382F83E31054B186880
:10218000FFF7C8FF18B9BDE8084000F047BD08BD1B
:102190009806FF1F34D0FE1F00F040BD2DE9F84F18
:1021A000264B82460D4693F83C911746984612B14D
:1021B00016888C1B36E016460AE000F0F7F8BBF8EC
:1021C0000830C3F386139D422EDB00F083F890BBEA
:1021D00085B34FF02C0B0BFB098BDBF80830DB06CB
:1021E000F6D400F01BF90028E7D0DBF81C30DBF850
:1021F00024404FF02C0B0BFB098BE41AAC42DBF8AC
:10220000200094BFA4B22C4618440AEB06012246D3
:1022100009F0C2FADBF81C3026442344CBF81C300A
:10222000B6B22C1BA5B2D3E7002FCED03E8005203E
:10223000BDE8F88F2846BDE8F88F00BF9806FF1F5D
:102240002DE9F84F224B82460D4693F83C911746F4
:10225000984612B116888C1B2DE0164602E000F05D
:1022600039F898BB8DB32C2404FB0984A3681B07A1
:10227000F8D400F0D3F800B32C23E46803FB0983FF
:1022800003F1080BAC4259691B6994BFA4B22C46F8
:102290000AEB06001944224609F07EFADBF8043006
:1022A0001B1BCBF80430DBF8083026442344CBF862
:1022B0000830B6B22C1BA5B2D4E700F04DF8002FC1
:1022C000CDD03E800520BDE8F88F2846BDE8F88FC8
:1022D0009806FF1F70B51E4C23689B6B98476425BA
:1022E000064694F83C212C2303FB02431979080687
:1022F00007D59868C0F3001030B99B68990703D5DB
:1023000070BD9B689B060ED4124B1B7803F0FF0137
:102310005BB105290BD02C2303FB02429068C0F36C
:10232000800030B170BD002070BD022070BD032060
:1023300070BD074B1B689B6B9847B042D1D06B1E9A
:10234000DBB215B106461D46CBE7042070BD00BFC9
:102350009806FF1F8D04FF1F70B5134D95F83C3193
:102360002C2404FB0354A3689A071BD52B68A2698D
:10237000DB6A207961699847A368E06000221B0747
:1023800022610FD470B92389A16943F00803238126
:10239000238960F3451323812B6820799B6ABDE86C
:1023A0007040184770BD00BF9806FF1FF8B5194A66
:1023B00092F83C312C2101FB03239968C80627D4ED
:1023C0009968890724D51989186A134E03F12805DD
:1023D00041F0100103F1200419816860D869A06000
:1023E0004FF400670020D861C6F88C70BFF34F8FA0
:1023F000BFF36F8F12681879D2F830C06968A2688D
:10240000E0476A68A36802441B1A6A60A360F76029
:10241000F8BD00BF9806FF1F00E100E00A4A92F8ED
:102420003C312C2101FB032213791B0606D5506A8F
:10243000D36983422CBF002001207047D068003050
:1024400018BF0120704700BF9806FF1F30B5094B29
:1024500093F83C212C2101FB0235EC696D6AAC42FA
:10246000FDD201FB02331A6A1055DA690132DA61D2
:1024700030BD00BF9806FF1F094A92F83C312C205E
:1024800000FB032000F108035A6802B9FEE79968CF
:102490004069013A405C5A6001319960704700BF61
:1024A0009806FF1F30B5094B93F83C212C2101FB06
:1024B0000234E569646A033CA542FDD201FB0233A4
:1024C0001A6A5051DA690432DA6130BD9806FF1F8A
:1024D00010B50A4B93F83C212C2000FB0231C9684F
:1024E0000329FDD900FB023303F108041A695B6973
:1024F0000439985861600432A26010BD9806FF1F2D
:10250000F8B5062303FB0101041D0D1DAC4229D0C3
:10251000164E14F8040C33682178DB6934F8022C69
:1025200000F00F079847F8B92C2303FB076314F852
:10253000042C1A7134F8021C1A8961F38C121A8166
:10254000D2B242F001021A721A8942F002021A81D2
:1025500014F8040C020603D432689969926A904711
:102560000634D3E70120F8BD0020F8BD9806FF1F10
:1025700070B5092877D8DFE800F05B534C51057639
:10258000685F7647384B02221A70384B012283F875
:102590003B2193F83E216FF3820283F83E21072608
:1025A0001D462C23C6F1070403FB0454072E238980
:1025B0006FF30413238123896FF3C30323812389DA
:1025C0006FF38203238110D0237ADB070DD5274BCD
:1025D00020791B681B6A984738B9237A60F3000397
:1025E0002372238960F341032381013ED9D12B68F3
:1025F00085F8396185F838619B6A287918219847F0
:10260000D5F840315B6A2AE0184BD3F840311B6A99
:1026100025E0164BD3F840311B6820E0012200E092
:102620000022114B1A70114BD3F840315B6816E051
:102630000D4B01221A7070BD0C4B0B4A93F83A11E6
:10264000D3F8403111709B6909E0074A074B1178B4
:1026500083F83A11D3F840310521DB69117013B1C9
:10266000BDE87040184770BD8D04FF1F9806FF1F1E
:1026700010B5084C236880205B6A0121984740B957
:10268000012384F83B31236818219B6ABDE8104080
:10269000184710BD9806FF1F73B59A4C9A4D00233A
:1026A00000930193D4F840316E88DB68B6B203B171
:1026B000984794F83E319B0740F140816B78F6B221
:1026C0000C2B00F23981DFE813F076000D003701A2
:1026D000F6003701C000430037013E00D500670017
:1026E000E70037012B78884A03F00303022B1ED141
:1026F00086499388097804299BB204D0928892B2C3
:10270000002A40F019812C2203F00F0302FB03433F
:102710001A7AD60740F110811A896FF382021A8162
:10272000784BA8881B68C0B25B6A0021E7E0137889
:1027300013F0030340F0008194F83E2163F382021A
:1027400084F83E21FAE0236871491B6B002030E0D9
:10275000D4F840315B69002B00F0EE806888A988CE
:10276000694E80B289B26A4698470546002800F053
:10277000E380F38800999BB2984228BFF5882368CC
:1027800028BFADB21B6B2A4600209847009B2D1A2C
:102790001844A562E062D1E05C4B1A78042A40F04C
:1027A0008680A988236889B201F59C711B6B002083
:1027B0002144012247E0287810F003000CD194F85E
:1027C0003E31C3F380025200D2B2C3F3C00302A968
:1027D000134341F8043D0DE04B4B1B7803F003031A
:1027E000012B0AD1494B1B78042B06D102A90020EA
:1027F00041F8040D23681B6B24E02B78424A03F058
:102800000303022B40F098804049938809780429FB
:102810009BB204D0928892B2002A40F08D802C2284
:1028200003F00F0302FB03431A7AD00740F18480C0
:102830009B6802A9C3F3800341F8043D314B1B6838
:102840001B6B00200222984778E0304B0EB9022221
:1028500000E003221A70236830469B6900219847E4
:1028600000286BD1274BD3F840311B69002B65D072
:10287000984763E0D4F8403184F839619B6803B12C
:1028800098470EB9032204E094F83E31D90753D596
:1028900004221E4B1A7051E01C4B1A78042A06D1F0
:1028A0006A88AB8814FA83F383F8382146E01B78F2
:1028B000032B43D140E0022E3ED0144B1A78042A59
:1028C00028D146B1012E39D194F83E3143F00403AA
:1028D00084F83E3132E0AB882C2203F00F0302FB78
:1028E00003431A7AD20727D51A8942F004021A81C3
:1028F000054B9888034B1B685B6AC0B2012198475F
:102900001CE000BF9806FF1F8E04FF1F8D04FF1FF1
:10291000D107FF1F1B78032B0ED16EB92B7803F064
:102920000303022B08D1094B9B8813F0FF0F02BF52
:10293000238943F004032381FFF79AFE94F83E3184
:1029400023F0020384F83E3102B070BD8E04FF1FF5
:102950002DE9F8436A4C00F00F05012920F07F00B3
:1029600094F83C8194F83D7184F83C5184F83D0121
:1029700043D002D3022970D0BCE02C2303FB0543D3
:102980001A896FF3C3021A81002D40F0B3802368C7
:102990005C4EDB6A284631460822984794F83E315F
:1029A000082843F0020384F83E3140F0A380B6F8D3
:1029B00006901FFA89F9B9F1000F0BD1032384F8AF
:1029C0003B31FFF769FE236848461B6B49464A4680
:1029D00098478FE03378190605D5022384F83B31F8
:1029E000FFF75AFE86E0042384F83B31F188236820
:1029F00028469B6A89B298477CE02C2303FB054359
:102A00001E461A8942F0200226F8082F726842B941
:102A10002168B260D1F82CC0187959699A69E047E9
:102A200070602C2303FB0545354E2B896FF3C303E0
:102A30002B8194F83C51002D5CD196F83B31042B4E
:102A400009D1FFF729FE336828461B6B29462A4621
:102A5000984703234CE0052B43E02C2303FB05435D
:102A600003F120069A6A72B121681879D1F830C052
:102A7000D96A03F12805E047B3681B1AB3606B6895
:102A80001844686036E01879020712D1DA6982B119
:102A90001C49C98889B28A420BD01989C1F38611B1
:102AA000B2FBF1F301FB132119B923680A461B6B32
:102AB00098472C2303FB054500222B89104EEA6121
:102AC00062F304132B8194F83C0198B996F83B31DA
:102AD000022B05D1336801469B6A9847052307E01E
:102AE000032B07D1336830799B6A1821984701235B
:102AF00086F83B3184F83C8184F83D71BDE8F88369
:102B00009806FF1F8E04FF1F38B53B4C0546FEF7A5
:102B1000DBFC4FF4A2722046002108F048FE374B40
:102B200000221A70364B23600120364B207223623C
:102B30004FF480736362A3612389334A626143F077
:102B400002032381238984F83B01402262F38C1322
:102B500023812B69DA68002A4AD05A69002A47D0B3
:102B60009A68002A44D0C4F84031FDF7A5FC274BF1
:102B70006B60274BAB60236828465B689847054627
:102B800020BB244BDB68C3F30223C3F107010629F2
:102B900028BF06210BB15A1E00E01A4601238B40C4
:102BA000013B03F03B0393409B001B4ADBB282F8DE
:102BB0006B334FF40063C2F88C31D360236800207C
:102BC000DB69014640229847054690B1FEF77CFC40
:102BD00023689B68984760B90F4B4FF40062C3F8B5
:102BE0008C21C3F88C20BFF34F8FBFF36F8F00E0B1
:102BF0000546284638BD00BF9806FF1F8D04FF1FFD
:102C000088C000089804FF1F9805FF1F7125000861
:102C10005129000800ED00E000E100E0014B1B68D5
:102C2000DB6818479806FF1F014B1B68DB6B1847D2
:102C30009806FF1F10B510F0800F00F00F04054834
:102C40004FF02C0303FB040419BF2162626261612F
:102C5000A26110BD9806FF1F014B1868FEF780BCEB
:102C600038D0FE1F4368006893F82C3001229A4048
:102C7000914234BF01F1FF3202F1FF321946FEF7F3
:102C800019BF43685B68184770B54468836894F857
:102C900029502DBB1D7E05F0FF061DBB21B31AB3C5
:102CA0009A6001221A7694F82B201960DE6003687E
:102CB00052B14FF40042C3F81821D3F8082142F072
:102CC0008042C3F8082103E01A6C42F400521A64EF
:102CD00094F82D104FF480328A409A66002070BD1F
:102CE000042070BD022070BD032070BD436893F8BE
:102CF00029300BB9FFF7C8BF04207047F8B5456805
:102D0000836895F82A60044626BB5F7E07F0FF06BD
:102D100017BB19B312B3596001211A6159765E616C
:102D200095F82C3005687BB14FF48043C5F8183115
:102D30001146FFF797FF2268D2F80C3143F0C043E9
:102D4000C2F80C313046F8BD2A6C42F440422A6485
:102D50001846F8BD0420F8BD0220F8BD0320F8BDD8
:102D6000436893F82A300BB9FFF7C8BF04207047B7
:102D700070B58468E368A268934205461ED2426833
:102D800092F82B208AB12868D0F81431DE040BD4D5
:102D9000E368A268934230D22268D15CFDF70DFF50
:102DA000E3680133E360EEE770BD22680068D15C40
:102DB000FDF703FFE3680133E36070BD0368D3F8F8
:102DC0001421110519D5416891F82B2032B1D3F89F
:102DD000082122F08042C3F8082103E01A6C22F493
:102DE00000521A649A6B1206FCD4002323762360E7
:102DF0008B6813B1BDE87040184770BD436893F805
:102E00002C302DE9F0410546846853B32868D0F88A
:102E100014311B071BD4666923699E4206D267687A
:102E2000FDF7DCFEB85563690133636162692369AC
:102E30009A42EBD100232A686376D2F80C3123F052
:102E4000C043C2F80C316B68DB6803B19847636913
:102E500021698B4222D22846C91ABDE8F041FFF70A
:102E600001BF666923699E4207D200686768FDF763
:102E7000B5FEB855636901336361626923699A429B
:102E80000CD100232A686376136C23F44043136447
:102E90006B68DB6813B1BDE8F0411847BDE8F0810D
:102EA00000F00700C0F10702062A28BF062200B181
:102EB000013801239340013B03F03E0303FA00F085
:102EC0007047000038B52C4D2C4C2D4A2846002167
:102ED000FDF7E4F920462B49FDF73EFEE36923F0B8
:102EE000070343F00303E36120461021042201237A
:102EF000FEF7B2FD002120460B460422FEF7C2FD7C
:102F0000236C214A23F00F0343F002032364284675
:102F10000121FDF7C3F9204610210022FEF7DBFD59
:102F2000204610210322FEF7E0FD184D2046102117
:102F30000522FEF7E6FD132105222046FEF7E1FDFE
:102F4000E868134CC0F30220FFF7AAFF80004FF49B
:102F50000003C0B284F85703A360E868C0F30220FE
:102F6000FFF79EFF8000C0B284F859034FF0007352
:102F7000A360002038BD00BF008502480000034068
:102F8000B0C200088CC20008A4C2000800ED00E036
:102F900000E100E00148FFF7EBBE00BF50D0FE1F8C
:102FA0000148FFF72BBF00BF50D0FE1F90F826301E
:102FB00033B190F821302BB942690121D16001E091
:102FC000012070470020704790F8213023B94369F1
:102FD000986800F0010070470020704710B5044663
:102FE000FFF7F2FF48B194F8263033B194F821008E
:102FF00028B9636901221A6110BD012010BD0020AB
:1030000010BD90F8213033B94269D2F8B03043F0A6
:103010000103C2F8B030704790F8263033B190F811
:1030200021302BB942690221116101E00120704772
:10303000002070474369428C5A630022DA630369B7
:10304000C2689B681A617047F8B505460E46FFF7DF
:10305000BBFF90BBAB689E422FD36B689E422CD8BF
:10306000C0F10F0223FA02F2964201D90130F7E7CC
:1030700095F821300BBB2B691F68EB6900F00F043A
:103080001979E2B262F303011971A6FB070108F096
:103090005DF80BA3D3E9002308F064F880B201289F
:1030A00088BF00F1FF30688421466869FDF71FFC86
:1030B0002846FFF7BFFF0020F8BD0120F8BD00BF84
:1030C00000E1F5050000000038B50446006900F095
:1030D0003DFD236999680546207ECA680123834027
:1030E0001343CB606069E169FDF7EAFB2046FFF717
:1030F000A1FF94F8253063B194F820206069002185
:10310000FDF7FEFB6269D2F8A43043F00103C2F878
:10311000A430636994F8241002221A61012284F811
:10312000262001B1DA60284638BD90F8262022B961
:1031300090F821300BB9FFF7C7BF0020704700009F
:10314000204BF0B5D968057842788778C1F3022121
:10315000C1F1070EBEF1060F28BF4FF0060E01B1F8
:103160000139012404FA01F3013B04FA0EF403EAE5
:103170000706631E13408B406AB2002A43EA060327
:103180004FEA8303AFBF02F1604205F00F050E4A1C
:10319000DBB2A5BF02F56142DBB2535582F80033C2
:1031A000C3786BB1027853B2002BA1BF012102F0AA
:1031B0001F0201FA02F25B09A4BF044941F823206F
:1031C0000020F0BD00ED00E014ED00E000E100E0C3
:1031D00030B545680C4695F8271095F82650012320
:1031E00003FA01F20DB1AB40DBB2D2B2A24228BF6A
:1031F00022469A4228BF1A460068013ABDE830408C
:10320000FEF758BC70B5856804464FF080410068F1
:10321000FDF792FCEB69012B09D10023206885F8AA
:103220002830C36C43F01003C364FDF719FC226817
:10323000936B1B06FCD4002385F8263063681B695A
:1032400013B1BDE87040184770BD8368006810B5C1
:1032500093F8284089B23CB1C36C43F00803C364BF
:10326000BDE81040FDF7E4BB012483F82840C36C9F
:1032700043F00403C364BDE81040FDF7C1BB70B563
:103280008568EB69012B04460CD10068836B1A0634
:10329000FCD4002385F82830C36C43F01003C364CA
:1032A000FDF7DEFB2268936B1B06FCD4002385F838
:1032B000273085F8263063685B6913B1BDE870403C
:1032C000184770BD08B520B143685B689847002077
:1032D00008BD012008BD0268D36C1943D164704752
:1032E0002DE9F04190460646069A85680C4611B9CC
:1032F00095F8281079B373B36AB30021A96195F8E2
:10330000261001F0FF0749BB2B600123EF6085F811
:1033100026309DF81C30AA603068EB614FF0804188
:10332000FDF7FCFB306895F824201021FEF7D3FB55
:103330003CB1304641463A46FFF787FF3846BDE884
:10334000F08195F8241032684FF480338B409366F7
:103350002046BDE8F0810120BDE8F0810220BDE8F3
:10336000F08170B546689DF8144096F8246026B93F
:103370000594BDE87040FFF7B3BF022070BDF8B5FB
:1033800016460546069A9DF820E084680F4621B946
:1033900094F82810002900F0FE80002B00F0FB803C
:1033A000002A00F0F88094F8271001F0FF000029AF
:1033B00040F0F380636023609DF81C30E3616B682C
:1033C00022610121A16184F8261084F8271093F866
:1033D00027106061A260E060C4F820E0286800293E
:1033E0007BD04FF48043C0F8183111462846FFF7D0
:1033F000EFFE2868D0F80C3143F0C043C0F80C3120
:103400006B68002F37D093F82430013B012B09D98A
:103410004FF08041FDF782FB286894F824201021AA
:10342000FEF759FB012228463146FFF70EFF6B6875
:1034300093F82420022A40F08D8093F82630002B48
:103440006AD02868D0F81431D90400F18380E36889
:10345000A26893427ED2E3680133934205D1236A86
:10346000012B02D1FDF73AFB01E0FDF721FBE368F8
:103470000133E360E5E793F82630F3B1D0F8083183
:1034800023F08043C0F808312868D0F81431DA04FA
:1034900060D4E368A26893425CD2E368013393424C
:1034A00005D1236A012B02D1FDF718FB01E0FDF7DE
:1034B000FFFAE3680133E360E6E7E368A26893425A
:1034C00048D2E3680133934202D1236A012B39D0F9
:1034D000C36C43F47243C36437E0016C41F4404170
:1034E00001642FB393F82430013B012B09D94FF02D
:1034F0008041FDF713FB286894F824201021FEF783
:10350000EAFA284631460122FFF79FFE6B6893F8DE
:103510002430013B012B1DD8E368A268013393429C
:1035200004D1236A012B01D128680BE028680CE044
:1035300093F8263083B9E3680133934205D1BEF195
:10354000010F02D1FDF7CAFA01E0FDF7B1FAE36815
:103550000133E3600020F8BDD0F8083123F0804348
:10356000C0F808312868D0F81431DB04F2D4E368DD
:10357000A2689342EED2E3680133934205D1236AF5
:10358000012B02D1FDF7AAFA01E0FDF791FAE368F9
:103590000133E360E6E70120F8BD0220F8BDF0B595
:1035A00047689DF8185097F825709DF81C402FB972
:1035B00006950794BDE8F040FFF7E1BE0220F0BD9C
:1035C0002DE9F041846894F827300546002B00F07F
:1035D000AB80436893F82730002B77D02868D0F869
:1035E000143113F0080616D16769D4F80480FDF78A
:1035F0008BFA08F807006369013363616269236924
:103600009A42EBD12A6884F82760D2F80C3123F073
:10361000C043C2F80C31626923699A423ED26169A3
:103620002846591AFFF7D4FD6A6892F8261039B374
:1036300092F82720012303FA01F69340B34228BFF2
:103640003346DEB200272868D0F81431DB0425D4D5
:10365000E368A268934221D2E3680133934205D123
:10366000236A012B02D1FDF739FA01E0FDF720FAB8
:10367000E36801370133E360FBB2B342E3D30DE00B
:10368000E368A268013393424AD1236A012B47D1F0
:103690002868FDF723FAE3680133E3606269236970
:1036A0009A4241D12B68D3F80C2122F0C042C3F8D2
:1036B0000C211A6C22F440421A6494F82830002B32
:1036C00032D02846BDE8F041FFF7D9BD00686669F1
:1036D0006768FDF719FAB855636901336361626978
:1036E00023699A4216D2E268A3689A421CD2E26821
:1036F000013B9A4206D1236A012B03D12868FDF7CA
:10370000EDF902E02868FDF7D3F9E3680133E360DF
:10371000BDE8F0812A68136C23F440431364CCE7BE
:103720002868FDF7C5F9B6E7BDE8F08170B5036814
:103730009D6C43689B6904463BB1AA0605D52021D0
:10374000FFF7C9FD63689B6998476368DB6943B10C
:103750006B0606D520464021FFF7BDFD6368DB6997
:10376000984763681B6A63B115F4817F09D02046CE
:103770004FF48071FFF7AFFD6368BDE870401B6ACE
:10378000184770BD70B5036884689A6C12F4B17FF5
:1037900005460DD0D3F8082122F08042C3F8082155
:1037A0001A6C22F400521A64BDE87040FFF7BEBFE5
:1037B0004268A16992F82600002954D1A168002826
:1037C00044D0E06888421FD218464FF08041FDF790
:1037D000B3F92A68D2F8083143F08043C2F80831BF
:1037E0002868D0F81431D9040DD4E268A3689A424D
:1037F00080F08680E3682268D15CFDF747F9E368D2
:103800000133E360ECE770BDD3F8081121F080418B
:10381000C3F8081192F828104AB2002A09DB0120E7
:10382000520901F01F0100FA01F16032354840F8F9
:103830002210D3F814211205FBD594F82830002B60
:103840005ED02846BDE87040FFF7DCBCE2688A42E3
:10385000F3D2E26821681846895CFDF717F9E3683E
:103860000133E36070BD70B392F8271041B10122BB
:1038700002FA00F68A40B24228BF3246D6B200E0D1
:103880000226D3F8082122F08042C3F808212868D4
:10389000D0F81431DB0427D4E368A268934223D222
:1038A000E3680133934205D1236A012B02D1FDF76E
:1038B00015F901E0FDF7FCF8E3680133E360E36824
:1038C000B342E4D310E0E268A16801328A421846AC
:1038D00005D1226A012A02D1FDF700F901E0FDF7C6
:1038E000E7F8E3680133E360AB68DA689B689A4203
:1038F00006D128684FF08041BDE87040FDF71CB943
:1039000070BD00BF00E100E0426810B5044692F8C7
:103910002400D0B9A36883F82600186083F8280033
:1039200092F8263053B12368D3F8082122F0804260
:10393000C3F808214FF40042C3F8182120684FF063
:103940008041FDF7F9F8002003E010F1FF3018BFC7
:1039500001202368DA6C42F00202DA6402229A66DD
:1039600010BD416808B591F82530EBB9826882F83E
:103970002730536082F8263082F8283091F82720CB
:10398000036832B1D3F80C2122F0C042C3F80C21F5
:1039900003E01A6C22F440421A6400684FF0804140
:1039A000FDF7CAF8002008BD13F1FF3018BF012051
:1039B00008BD000008B506480F210022FCF7BAFF39
:1039C00004480D210022BDE80840FCF7B3BF00BF4A
:1039D000008302480080024808B506480F21D02223
:1039E000FCF7A8FF04480D21D022BDE80840FCF7F1
:1039F000A1BF00BF008302480080024800F007001A
:103A0000C0F10702062A28BF062200B101380123AF
:103A10009340013B03F03C0303FA00F070470000C1
:103A200038B53C4C3C493D4D2046FCF7CFFFE3699F
:103A300023F00703E361236A23F0070343F0010344
:103A40002362E36943F02003E361E36943F0400349
:103A5000E361236A43F020032362236A43F04003B7
:103A600023622046012320210522FDF7F5FF204691
:103A700010210122FEF739F8D4F80831C4F80831D2
:103A800020461F2300210522FDF7FCFF20461021C0
:103A90000022FEF736F8204613210022FEF731F807
:103AA000D4F80C3143F0C043C4F80C312046022254
:103AB0001021FEF710F820464FF0B071FDF72EF8F8
:103AC000236C1748174A23F00F0343F004032364C1
:103AD0000F21FCF7E3FB0D21134A1448144CFCF7AB
:103AE000DDFBE868C0F30220FFF788FF80004FF09D
:103AF0000063C0B284F85B03A360E868C0F30220EF
:103B0000FFF77CFF8000C0B284F85A034FF0806357
:103B1000A36038BD0002024808C3000800ED00E0C1
:103B200000830248C4C20008D0C2000800800248D6
:103B300000E100E00148FFF725BE00BFE8D0FE1F0E
:103B40000148FFF73DBD00BFE8D0FE1F437B10B525
:103B5000044653B98068217BFCF7A2FEA268D368B3
:103B600043F48073D36001236373002010BD10B54C
:103B70000446221D217C0068FCF790FB2068217C14
:103B8000627CFCF7E9FE002010BD0000194B1A4AC8
:103B9000D96821F4E0610904090C0A43DA6072B6BD
:103BA000164A9A60BFF34F8F62B6D3F88820144844
:103BB00042F4700241F21401C3F88820425822F006
:103BC0000F0242F0040242505A6922F010025A6178
:103BD0005A6922F008025A615A6A22F480325A6203
:103BE0005A6A22F400325A625A6A22F480225A62D5
:103BF000704700BF00ED00E00001FA05000000087A
:103C000000100058012303700020704700487047DF
:103C1000001BB70030B5114D0FCD87B001AC0FC4FC
:103C20002B68236001A8FCF7B9FD0020FCF7DEFB40
:103C30000020FCF7B7FB0420FCF720FC202101202A
:103C4000FCF754FC0020FCF7B7FB0120FCF72AFC32
:103C50000120FCF71DFC07B030BD00BF38C30008D1
:103C600008B51548FFF7CEFF20BB1448FFF72AFB25
:103C700000BB1348FFF77BFFE0B91248FFF777FF5F
:103C8000C0B91148FEF746FAA0B91048FEF7F9FF8F
:103C900080B90F48FFF749FA60B90E48FFF750FAAC
:103CA00040B90D48FFF74CFA20B90C48BDE8084070
:103CB000FFF73BBA08BD00BF50D8FE1FE8D0FE1F7B
:103CC00010C3000824C3000808D8FE1F50D0FE1FF0
:103CD0005CD0FE1FC0C20008BCC2000884D0FE1F1A
:103CE000002070472DE9F04FADB0884601A89346FB
:103CF0009A46BDF8D870BDF8E040BDF8E85005F030
:103D00006BF8B8F1000F01D101247BE0BAF1000F8C
:103D1000FAD0379B002BF7D0399B002BF4D007F15A
:103D200020063219802A01DD04246BE0062005F00C
:103D300045F8514681463A4614A807F02DFD0CABD4
:103D400037992246981907F027FD01A84946012214
:103D500005F060F80028E7D101A841465A4605F071
:103D60007BF80028D0D13A1997B201A814A93A4695
:103D700005F0D2F80028C7D101A80CA905F0DCF89D
:103D80000028C1D10446AC4236D201A805F002F9A0
:103D9000002833D101A80CA907F1200205F0BCF8D6
:103DA00060BB0DF1100801A8414605F0C5F828BB1D
:103DB00001A805F0EFF808BB01A80CA9202205F026
:103DC000ABF8D8B901A80CA905F0B6F8B0B904F160
:103DD0002002AA42CCBF05F01F012021002398B287
:103DE000884207D2399818F803E0204400F803E02D
:103DF0000133F4E794B2C6E7002403E0AC422CBFE1
:103E00000024012401A804F0EBFF0CA8002180226B
:103E100007F0CDFC04A80021202207F0C8FC2046B2
:103E20002DB0BDE8F08F2DE9F04798B00AA8259D88
:103E3000209CDDF888909DF890600F4690469A4649
:103E400004F05BFE0DB901242BE0002FFBD0002C09
:103E5000F9D0B9F1000FF6D0BAF1000FF3D00AA8EB
:103E600002215246802304F04CFE0028EBD1BDF81D
:103E70008C30029706AF01932246CDF8009003954F
:103E8000049705960AA84146BDF8843004F080FEE8
:103E900004460028D7D105EB08003946324607F022
:103EA0007BFC0AA804F050FE204618B0BDE8F0875D
:103EB0002DE9F04794B006A8DDF884801C9EDDF85B
:103EC00078909DF880700C4615469A4604F015FED1
:103ED000B8F1000F01D1012426E0002CFBD0002E08
:103EE000F9D0B9F1000FF6D0BAF1000FF3D006A85F
:103EF00002215246802304F004FE0028EBD1E91B86
:103F0000BDF87C3002940C4401930494CDF80090E9
:103F1000CDF80C80059706A83246BDF8743004F041
:103F200075FE041C18BF012406A804F00DFE2046EF
:103F300014B0BDE8F08730B1036823B1197C1A686A
:103F400001238B405360704738B103682BB1197C53
:103F50001A684FF480338B4053607047064B1A68E1
:103F600042B91A6801321A60186810F1FF3018BFA0
:103F7000012070470120704758D8FE1F08B5C3685C
:103F800080689847014B00221A6008BD58D8FE1F70
:103F9000024B00211868FFF7F1BF00BF54D8FE1F85
:103FA000024B00211868FFF7E9BF00BF54D8FE1F7D
:103FB00038B5124B1A681468A26892F826201D467C
:103FC00022B9A36893F827308BB108E02046FFF7A9
:103FD0009BFCA26892F82630002BFBD1F1E720462B
:103FE000FFF7BFFCA26892F82730002BFBD12868AE
:103FF0000121BDE83840FFF7C1BF00BF54D8FE1F04
:10400000FFF7D6BFFFF7D4BF0020704700207047EE
:10401000F7B504460F461546FFF7A0FF0646A0B9C0
:104020000D4B22791C6000950125019520682946D9
:10403000AA403B46FFF795F960B1E368A0682946BE
:104040009847064B28461E6004E0A068E3680221FA
:104050009847022003B0F0BD54D8FE1F58D8FE1F69
:10406000F0B585B004460F461546FFF777FF0646C4
:10407000A8B90E4B22791C60009501250195029587
:1040800020682946AA403B46FFF789FA60B1E368F9
:10409000A06829469847064B28461E6004E0A068A1
:1040A000E36802219847022005B0F0BD54D8FE1FF6
:1040B00058D8FE1F38B50546FFF750FFEB680028BB
:1040C0000CBF0024022413B1A8682146984714B9F4
:1040D000024B00221A60204638BD00BF58D8FE1F90
:1040E000014B00225A7170472CD1FE1F014B002258
:1040F0001A7170472CD1FE1F08B503680BB1002060
:1041000008BDFEF749F820B9FDF78CFF0028FBD069
:10411000F5E7012008BD000038B5044608462368CD
:104120004BB991B2FDF78AFF044670B90848FDF714
:10413000F1FE20460AE0012060711846FEF7D6FD28
:1041400020B96379002BFCD100E0012080B238BD9A
:104150006C04FF1F38B50446084623684BB991B27A
:10416000FDF786FF044670B90848FDF7D3FE2046E8
:104170000AE0012020711846FEF7F2FD20B92379EC
:10418000002BFCD100E0012080B238BD6C04FF1F81
:10419000222810B5134608D0332808D011280FD193
:1041A000402A0DD80748002403E0074800E00748EC
:1041B0001C0A04704370023007F0EEFA002010BDB4
:1041C000012010BD3CD1FE1FDC07FF1F2008FF1F90
:1041D00038B50346222B084615460BD0332B0BD09F
:1041E000112B15D10C490C784B7843EA0424402C50
:1041F00010D806E0094900E009490C784B7843EAF9
:1042000004240231224607F0C7FA2C80002038BD72
:1042100000231380012038BD3CD1FE1FDC07FF1FA7
:104220002008FF1F002303707047000010B50848E6
:10423000FEF7E7FE0648FEF7D1FE0548FEF7ECFE66
:10424000044A53681BB19068BDE81040184710BD80
:1042500084D0FE1F5CD8FE1F10B5064C416064215F
:10426000826059432046FEF7EFFE2046BDE810402D
:10427000FEF79CBE84D0FE1F10B504783CB9012423
:1042800004704FF47A73BDE81040FFF7E5BF10BD2E
:104290000A4608B5014618B112B10248FFF7ECFF13
:1042A000004808BD5CD8FE1F7047704707F026BA6B
:1042B00007F05ABA07F070BA07F079BA10B5064C91
:1042C0002046FEF79EFE2046FEF7A6FE034A136830
:1042D0000133136010BD00BF5CD0FE1F6CD8FE1F01
:1042E000024B1868421C1A60704700BF70D8FE1F4E
:1042F000014B1868704700BF6CD8FE1F044A116854
:104300000023834202D813685B1AFAE7704700BFA4
:104310006CD8FE1F00230384C3698069184710B15D
:10432000002380F8223070472DE9F041069E884630
:1043300015461F460446002837D04369002B34D069
:10434000002E32D0038C012B32D0012303840021B4
:104350001422FFF7B1FF022D06BF3378A373A660C6
:10436000BDF81C30A3804FF000024FF000060CBFD8
:10437000A260A2736573606994F82210A4F80080AB
:10438000324667802673E68003F092FA606994F8FB
:104390002310012203F08CFA29466069224603F0BB
:1043A00047FB054630B1268404E040F2033501E0C6
:1043B00040F205352046FFF7B2FF2846BDE8F08100
:1043C000012902D0022903D0704780F822207047CB
:1043D00080F8232070470000F8B5064617460D46C2
:1043E00009B900241BE001202421FFF75FFF0446E8
:1043F0000028F6D000230122C56180F823208761C0
:10440000038480F8223007493046224603F05CFAE4
:104410000546606118B92046FFF74AFF2C46204642
:10442000F8BD00BF1543000838B5044650B1038CF1
:10443000012B0AD0406903F09FFA05462046FFF79A
:1044400037FF04E040F2033501E040F2053528462D
:1044500038BD70B50D46044618B3406908B3238CC7
:10446000012B21D0012694F822102684002203F08B
:104470001FFA606994F82310324603F019FA606954
:104480000DB9332100E01121022203F011FA29466F
:104490006069002203F092FA054638B100232384B4
:1044A00004E040F2033501E040F205352046FFF715
:1044B00036FF284670BD70B50D46044618B34069F6
:1044C00008B3238C012B21D0012694F822102684D6
:1044D000002203F0EDF9606994F82310324603F0EE
:1044E000E7F960690DB9332100E02221022203F0CF
:1044F000DFF929466069002203F072FA054638B1F7
:104500000023238404E040F2033501E040F2053546
:104510002046FFF704FF284670BD2DE9F843089DAB
:10452000894616469846044678B343696BB3B8F19A
:10453000000F2AD04DB3038C012B29D0012707840B
:1045400000211422FFF7B8FE66800026A4F8009030
:10455000A6722B88A380E560606994F82210C4F8E5
:1045600010803246E680268103F0A2F9606994F853
:1045700023103A4603F09CF96069A17A224603F0C1
:1045800043FA054630B1268404E040F2033501E0E9
:1045900040F205352046FFF7C2FE2846BDE8F88305
:1045A0002DE9F0410E4690461F46044660B343692C
:1045B00053B34AB347B3038C012B28D0012505849C
:1045C00000211422FFF778FE26800026A57266805F
:1045D0003B88A380606994F82210C4F810803246AA
:1045E000E760E680268103F063F92A46606994F863
:1045F000231003F05DF96069A17A224603F004FA02
:10460000054630B1268404E040F2033501E040F273
:1046100005352046FFF783FE2846BDE8F08130B51A
:1046200012F0BF0FBDF8104004D10494BDE8304033
:10463000FFF77ABE40F2033030BD2DE9F0410E465F
:1046400017469846044648B343693BB332B3038CDC
:10465000012B26D00125058400211422FFF72CFE12
:104660002680002625736573606994F822106680A1
:104670003246A760A4F80480E68003F019F92A46C0
:10468000606994F8231003F013F96069617B224696
:1046900003F0CEF9054630B1268404E040F203353C
:1046A00001E040F205352046FFF739FE2846BDE817
:1046B000F0812DE9F041884615461F46044630B387
:1046C000436923B31AB3038C012B23D0012606843C
:1046D00000211422FFF7F0FD606994F8221084F89D
:1046E0000780002203F0E4F83246606994F8231052
:1046F000002603F0DDF82560A780A6716069E179E6
:10470000224603F027FA054630B1268404E040F241
:10471000033501E040F205352046FFF700FE28464C
:10472000BDE8F08110B5044698B1406988B181B107
:10473000238C012B10D00123238402232160A2802B
:10474000A371E179224603F005FA38B100232384EE
:1047500010BD40F2033010BD40F2053010BD10B561
:10476000044688B1406978B1238C012B0FD0012316
:104770002160A2802384A371E179224603F0EAF943
:1047800038B10023238410BD40F2033010BD40F245
:10479000053010BD1FB504AB03F8042D00930123B1
:1047A000019302220023FFF7BFFD05B05DF804FB73
:1047B00000238385836A406A18472DE9F8439946A8
:1047C000838D0A9E012B04468846154633D0012767
:1047D000878500212022FFF76FFD206A94F82E10B4
:1047E000002203F065F83A46206A94F82F1003F08F
:1047F0005FF8089BA360099BE3610C9B63619DF8D4
:104800002C3023766B1E0022BB422573626022602F
:1048100008D8B9F1000F01D0666003E045F010053B
:1048200025732660206A4146224603F07DF920B1B7
:104830000023A38501E040F20540002384F82E30D8
:10484000BDE8F883012902D0022903D0704780F81F
:104850002E20704780F82F2070470000F8B50646DC
:1048600017460D4609B900241BE001203021FFF74F
:104870001DFD04460028F6D000230122856280F841
:104880002F204762838580F82E3007493046224624
:1048900003F01AF80546206218B92046FFF708FD14
:1048A0002C462046F8BD00BFB147000838B5044685
:1048B00050B1838D012B0AD0006A03F05DF80546E4
:1048C0002046FFF7F5FC04E040F2034501E040F22A
:1048D0000545284638BD2DE9F843884617469946D0
:1048E000044660B3036A53B34AB3838D012B1FD0D0
:1048F00001260025868500212022FFF7DDFC206AA5
:1049000094F82E10A5602A4665806760A4F8009090
:1049100002F0CEFF206A94F82F10324602F0C8FF52
:10492000206A4146224603F097F818B1A58501E0B8
:1049300040F20540002384F82E30BDE8F88340F2B1
:104940000340BDE8F8837FB50B4670B1026A62B1DF
:1049500059B1097A00930022012303930192029234
:1049600004921346FFF729FF01E040F2034007B02D
:104970005DF804FB10B5144686B090B1026A82B1AE
:1049800079B173B10A7A00914968029301230393C4
:10499000002301910493114623460222FFF70DFFE5
:1049A00001E040F2034006B010BD7FB50B4678B180
:1049B000016A69B163B15AB1197A00935B680193D6
:1049C00000230492029303930322FFF7F6FE01E013
:1049D00040F2034007B05DF804FB30B587B01546E0
:1049E0000A9C70B1026A62B15BB154B100220092BC
:1049F000019202930392049401222B46FFF7DDFEFD
:104A000001E040F2034007B030BD2DE9F84F0A9EA7
:104A10000B9F0C9D8A4693469846044678B3036ADA
:104A20008BB387B37EB375B3838D012B2ED04FF03C
:104A30000109A0F82C9000212022FFF73DFC206AFC
:104A400094F82E1084F800B0002284F801802561CB
:104A500002F02EFF206A94F82F104A4602F028FF39
:104A6000B8F1000F01D0666001E033886380E76031
:104A70002561206A5146224603F034F808E040F2EE
:104A80000340BDE8F88F40F2034001E040F20540EA
:104A9000002384F82E30BDE8F88F2DE9F047089FF9
:104AA000099E884692469946044650B3036A63B30A
:104AB00059B357B34EB3838D012B29D0012585857A
:104AC00000212022FFF7F8FB206A94F82E10C4F88A
:104AD0000080002284F80EA0A4F80C906760A66005
:104AE00002F0E6FE206A94F82F102A4602F0E0FE5B
:104AF000206A1121224602F0C3FF58B10023A3858A
:104B000008E040F20340BDE8F08740F2034001E0D6
:104B100040F20540002384F82E30BDE8F0872DE9EF
:104B2000F0470A9D9DF82460884692461F46044639
:104B300090B3036AA3B399B397B38DB3838D012B5D
:104B400031D04FF00109A0F82C9000212022FFF76E
:104B5000B3FB206A94F82E10002202F0A9FE206A0E
:104B600094F82F104A4602F0A3FEBDF82030C4F896
:104B7000008084F804A0A760A381A67316B92B88CF
:104B8000A38200E02561206A1121224602F096FFEF
:104B900058B10023A38508E040F20340BDE8F08748
:104BA00040F2034001E040F20540002384F82E303B
:104BB000BDE8F08738B5836904460D460BB1C0697E
:104BC0009847042384F8293094F82830A585012BD0
:104BD00003D115B9022384F8283038BD10B590F8F8
:104BE0002E3013F0FD0F04462CD190F82A20B22A63
:104BF00014D0B32A29D0B12A2CD113B98068FFF779
:104C0000A3F9E068FFF7A0F9B22384F82A30D4F8BA
:104C1000D004124922464FF4FA630FE013B98068BA
:104C2000FFF789F9E068FFF786F9B323D4F8D004D9
:104C30000A4984F82A30224642F6E063FFF70CFB6B
:104C4000002010BD012380F8AD310549BDE81040BA
:104C500001F066BA4FF4817010BD00BFDD4B000853
:104C6000B54B000870B5042380F8293090F828303F
:104C7000012B04460D4608D10069FFF7C7F9A0686B
:104C8000FFF762F9E068FFF75FF9A36923B1E06914
:104C90002946BDE87040184770BD10B590F829301E
:104CA000032B044613D003699860002380F82E304C
:104CB000B12380F82A30012380F82F3080F8283083
:104CC000FFF78CFF28B9032384F8293010BD4FF477
:104CD000817010BDF7B590F82870089D022F04462A
:104CE0000FD190F82970032F0BD0236245620095F5
:104CF00001F065FA38B9A38D2BB9032384F8293064
:104D000001E04FF4817003B0F0BD000038B590F8B9
:104D10002930032B04464FF4817516D00123858575
:104D200080F828300A4901F023FAB0F5817F054662
:104D30000BD12069FFF76AF9A068FFF705F9E06871
:104D4000FFF702F9042384F82930284638BD00BF54
:104D5000654C000870B500220646331A9BB28B42A0
:104D600011D216F8013B534003F00F04DBB283EA83
:104D700004131D0985EA430385EA122244EA031459
:104D800082EAC402E9E7104670BD70B50E4690F89D
:104D90006210012A054604BF481C00F00301022AE4
:104DA0002C6F02D16C6F002105E022B995F86000EC
:104DB000092808BF6C6F41EA4211C9B22170A6B13F
:104DC00013B195F8663033B195F86130013303F0D3
:104DD000030385F86130237895F8612043EA820364
:104DE0002370002385F8663002E061F07F012170B6
:104DF000330AF11C6370A670204689B2FFF7AAFF40
:104E0000A319020ADA701871721D2846214692B25F
:104E1000BDE8704000F032BC2DE9F04F85B00025B0
:104E200004468B4691461F46A84601952E4602959C
:104E3000AA46BBF5837F06D194F86030012B02D0DF
:104E4000082384F8603094F86030013B0A2B00F2AC
:104E50004581DFE813F00B0013002200CA00E900CF
:104E6000E20043011D01C1004D008400BBF1000FB1
:104E7000E56F204614BF0121022134E1BBF5817F9B
:104E800000F0B680FFF734FA0323A06784F860309F
:104E9000204600F008FCA8BB2CE1BBF5817F00F0A8
:104EA000A780042F2ED999F8003099F80180039338
:104EB00003F00302029299F80220C3F34116C3F3F0
:104EC000810A42EA082309EB0702B91E12F802CC54
:104ED00012F8012C0193484689B242EA0C28FFF7E8
:104EE00039FF039BDB09054614BF0B230A2342E06D
:104EF000A84507D1019B2BB105339F4202D1B31EB8
:104F0000012B01D8062336E094F86230013303F018
:104F100003039A4505D0092384F860302046002118
:104F200016E094F86130029A934244D1012E46D0A3
:104F3000494684F862A0606F3A4606F02DFC0021D5
:104F40000423A4F86E7084F8641084F8603020465E
:104F50000A460B4605B0BDE8F04FFFF716BFB31E7B
:104F60005A425A4194F86330934201D0092302E037
:104F7000A84503D0052384F860305AE7052F1AD8D6
:104F8000019AC2B96BB1092384F86030012384F817
:104F90006630032384F8613084F862304546022687
:104FA00047E7BAF1000F06D1032E04D094F8613020
:104FB000029A934201D0092302E0012E04D1052375
:104FC00084F86030454634E7012384F86030E56FAB
:104FD00020460221524687E00323204684F86030B1
:104FE00005B0BDE8F04F00F05EBBBBF5817F01D19D
:104FF000052326E7012384F8603094F86310B4F8A1
:105000006E30D4F87CC0626F053B204609B10421A4
:1050100000E0062103329BB268E0022384F860308E
:1050200020460021012294E7FFF762F9E36CC01AE1
:10503000324B984224D894F86430032B10D184F872
:10504000613084F862300123002184F86630052342
:1050500084F8603084F86410204602220B460AE08F
:10506000013384F86430B4F86C10022384F86030A3
:10507000204600220123FFF788FE20B1062300E02E
:10508000082384F8603094F86030082B32D1D0E6E1
:1050900094F8663013B9012384F8653094F86520DC
:1050A000012122B984F86010E56F20461CE003233B
:1050B00084F8613084F8623084F86610052300219A
:1050C00084F8603020460B460222FFF75EFE08237C
:1050D00084F86030002384F865300BE00121E56F2F
:1050E00084F86010204600221346AC4605B0BDE8A7
:1050F000F04F604705B0BDE8F08F00BF1FBF020052
:1051000038B500230D4680F860300E49044600F0A3
:1051100083FA98B9012384F86030032384F861305E
:1051200084F8623004F52973236784F8660004F27A
:10513000BA3384F86500E567636738BD4FF4817062
:1051400038BD00BF194E000810B590F86020012A44
:10515000034611D181B1022280F86020002280F83C
:10516000642080F863200A24A3F86C108466134638
:10517000BDE81040FFF709BE4FF4817010BD00007C
:1051800010B590F86030012B044611D1032280F84D
:105190006020002280F8633080F86420FFF7A8F8D0
:1051A000054BA067A3662046BDE8104000F07BBA1F
:1051B0004FF4817010BD00BF20BF020010B5012464
:1051C00080F880100346A0F8982180F89A41C82200
:1051D00080F89B41A0F89641A0F89C2103F1800142
:1051E00022460069BDE81040FEF712BF822104226A
:1051F000FFF7E4BF38B5044680F8801019468130C7
:10520000154606F0C9FA02236A1C84F89A31C823AD
:10521000A4F89C3192B20123A4F8962184F89B3122
:10522000206904F18001BDE83840FEF7F1BE90F836
:105230009B21012A034606D10069B3F8962103F1A8
:105240008001FEF7E5BE022A06D10069B3F8982175
:1052500003F18001FEF704BF7047000038B5044633
:1052600000690023C568C360FEF724FF2369DD6081
:1052700088B1B4F89C315A1EA4F89C214BB1D4F8E3
:10528000D004054922464FF47A73FEF7E5FF01206A
:1052900038BD4FF4817038BD9D52000837B5838802
:1052A0008DF805301A0A04468DF804204FF48171F8
:1052B00094F8AC31552B5CD013D8222B00F08280AF
:1052C0000AD8112B40F0A180222384F8AC3120466B
:1052D0008121022201AB72E0332B26D0442B26D051
:1052E00093E0882B75D004D8662B4BD0772B55D004
:1052F0008BE0AA2B7DD0BB2B40F087806421204619
:10530000FFF7ACFF014608B933234EE0B0F5817FCB
:105310007BD1AA2384F8AC31D4F8D0043C4922468E
:1053200042F6E063FEF798FF6FE0442322E094F832
:10533000822094F8833043EA022380228DF80020F3
:105340006288B2F5C87F04D9B3F5C87F0FD80423AB
:1053500003E0B3F5C87F0AD903238DF80130552344
:1053600084F8AC312046892102226B4627E066236F
:105370001BE0662384F8AC31204684210422FFF729
:105380001DFF42E094F8820094F88330628843EA7B
:1053900000239A428CBFAA23772306E06188204627
:1053A000FFF75CFF014618B9112384F8AC317FE7A1
:1053B000B0F5817F29D1AA2384F8AC3125E0FFF72D
:1053C00019FF22E0882384F8AC3120468121022293
:1053D000D5E7AA2394F8802084F8AC3194F8813082
:1053E00043EA0223A2889A42FFF462AFA38000211D
:1053F0005EE709B9022300E00023002284F89F3110
:10540000D4F8A85120461346A84703B030BD00BFCA
:105410009D52000870B5044641B1D0F8A84102235E
:10542000002280F89F31A44613466EE090F89F3129
:10543000013B042B5ED8DFE803F0070B1552030095
:10544000BDE8704000F066B8BDE87040FFF726BFC9
:10545000032380F89F3190F89E31022B02D18221E4
:10546000042216E094F89E31022B16D194F8803075
:105470005B0621D594F8822094F8833053EA022207
:105480001AD0A388934217D3042384F89F3120466F
:105490008021BDE87040FFF791BE012B0CD10423A1
:1054A00084F89F312046B4F8A421D4F8A03180219B
:1054B000BDE87040FFF79EBEFEF71AFFA36FC01A4B
:1054C000A36E984209D2D4F8D0041149224641F281
:1054D0008833BDE87040FEF7BFBE02230BE0022315
:1054E00080F89F31D0F8A851B0F89831002100F130
:1054F000800209E001230022D4F8A85184F89F31EA
:1055000020464FF481711346AC46BDE870406047B9
:10551000ED51000807B50023ADF8043090F8AD3127
:10552000993B02460A2B37D8DFE803F006363636B9
:1055300036363636300E2500A22380F8AD31822172
:105540000422FFF73BFE27E090F8803003F00803C9
:10555000DBB280F8803043B1A32380F8AD318821DD
:10556000022201ABFFF746FE16E0002380F89F31D0
:105570004FF481710EE0A12380F8AD310849D0F8D5
:10558000D00442F6E063FEF767FE05E0012380F8F1
:105590009F310021FFF73EFF03B05DF804FB00BF21
:1055A00015550008024689B1022915D8B0F89C317A
:1055B000591EA0F89C112BB1D0F8D00407494FF424
:1055C0007A7307E04FF48371FFF724BFD0F8D0045B
:1055D00003493223FEF740BE704700BF2F52000838
:1055E000E555000890F89A21012A03460DD190F85C
:1055F0009B21012A09D1022280F89B2103F180011D
:105600000069B3F89821FEF72BBD022A03D1184692
:105610000021FFF7FFBE704710B5002380F89F31CF
:10562000BB2380F8AC3103690278C0F8A8111A7165
:1056300004460069104BC360C823A4F89C3194F859
:105640002F30012B08D094F8AD31012B0BD19923C9
:1056500084F8AD31052307E0FEF7D6FC0028F2D030
:105660004FF4817010BD0123204684F89F31002142
:10567000FFF7D0FE002010BDA555000810B590F82A
:105680009F41013C012C0BD8012480F89E41C0F8B9
:10569000A011A0F8A4210021FFF7BCFE002010BD3E
:1056A0004FF4817010BD08B590F89F31013B012B7C
:1056B00007D8022380F89E310021FFF7ABFE0020BF
:1056C00008BD4FF4817008BDF0B589B004461F468F
:1056D0009DF8443080F858320E4600F25920394681
:1056E000154600F0DDFF94F8313084F85D3204F2A5
:1056F0005E20294600F0D0FF9DF840202244394624
:10570000D2F8D401069007A800F0CAFF9DF83C30FB
:1057100006A90091082101910391049105F1080265
:105720000E990591234404F516740294314692B201
:1057300003F5EA730020FEF7BBFB002814BF4FF40B
:105740008170002009B0F0BDF0B589B004461F4655
:105750009DF8383080F858320E4600F2592039460C
:10576000154600F09DFF94F8313084F85D3204F264
:105770005E20294600F090FFD4F8F40106903946E7
:1057800007A800F08DFF06AB009304F516720823FE
:105790000193029203930493059631462A4604F539
:1057A000EA730020FEF73FFB002814BF4FF481701E
:1057B000002009B0F0BD00002DE9F04311F4837F13
:1057C000ABB0044616461F461FD0FF2380F8D231E7
:1057D00090F8B031052B04D140F20713A0F86432E1
:1057E00010E090F8B231012B0AD1B1F5827F07D0D9
:1057F0004FF48473A0F86432002380F8B23101E0E2
:10580000A4F86412072384F8B03194F8B031013B56
:10581000072B00F27684DFE813F008004C017903CF
:10582000C802650110043F040F00D4F89C52B4F87C
:105830006412204600F06DBC94F8B331012B02D005
:10584000022B7BD012E194F93020002A01DA0223E6
:10585000D9E794F83220222A07D1602284F81C224A
:10586000A4F86032A4F8563256E0112A49D163698F
:105870009888E0B13423A4F8603204F51A7104F575
:105880001872FEF7A5FC012800F0038194F892320B
:1058900084F8B23194F893328BB9022384F8B03192
:1058A000002384F8B231012384F86632ADE794F81E
:1058B0009332002BF1D094F8923284F8B2316823FD
:1058C00084F81C32D4F8981204F21D2000F0E8FE8F
:1058D000002165698DF89310052384F89312A4F8CC
:1058E0005632A4F86032AB88B3B134221AA805F05E
:1058F0005EFFA8881AA93422FEF74AFC01280BD1C2
:10590000C7E0FF2384F8D231072384F8B0314FF485
:105910008173A4F86432BCE004F5187304F50771D0
:105920000093B4F8562220460B4600F005FE0028EE
:1059300040F0AC80022384F8B331EDE3337803F018
:10594000FC036C2B04F51A7528D194F83230112B16
:105950007FD1052F7DD104F5EA7304F5247255F843
:10596000041B43F8041B9542F9D1D4F89432C4F8CF
:10597000B431D4F89832C4F8BC3194F8903284F839
:10598000623294F8913284F8633294F8923284F857
:10599000B231012384F86632042356E0642B58D1D7
:1059A00094F83230222B54D1012F52D104F5EA78E9
:1059B00084F8937243462A4604F5FE7153F8040BAB
:1059C00042F8040B8B42F9D1D4F8B431C4F89432C4
:1059D000D4F8BC31C4F8983294F8623284F890322A
:1059E00094F8633284F8913294F8B23184F89232A8
:1059F00063699888B0B13422A4F860222946FEF782
:105A0000C7FB78B1FF2384F8D231072384F8B03183
:105A10004FF48472002384F8B231A4F8642284F82D
:105A2000A03233E040460021282205F0C0FE0023CA
:105A3000C4F8B431C4F8B831C4F8BC3184F8623267
:105A400084F8633284F8A032012384F8B031002353
:105A5000DDE228460021342205F0A9FE636998881A
:105A6000B8B129463422FEF793FB12E0FF2384F8F5
:105A7000D231072384F8B0314FF48472002384F8C4
:105A8000B231A4F8642284F8A03202E000283FF486
:105A9000BCAEFF2384F8D231072384F8B0314FF431
:105AA0008472002384F8B231A4F8642284F8A0320E
:105AB000ABE694F830301A0603D48BB194F8B231C7
:105AC00073B9052384F8B031112384F8B131002370
:105AD00084F8B23199E694F8B231012B40F01C837E
